{
  "contractName": "CarpoolingFactory",
  "abi": [
    {
      "inputs": [],
      "payable": false,
      "stateMutability": "nonpayable",
      "type": "constructor"
    },
    {
      "constant": true,
      "inputs": [],
      "name": "admin",
      "outputs": [
        {
          "internalType": "address",
          "name": "",
          "type": "address"
        }
      ],
      "payable": false,
      "stateMutability": "view",
      "type": "function"
    },
    {
      "constant": true,
      "inputs": [
        {
          "internalType": "uint256",
          "name": "",
          "type": "uint256"
        }
      ],
      "name": "carpoolings",
      "outputs": [
        {
          "internalType": "contract Carpooling",
          "name": "",
          "type": "address"
        }
      ],
      "payable": false,
      "stateMutability": "view",
      "type": "function"
    },
    {
      "constant": false,
      "inputs": [
        {
          "internalType": "string",
          "name": "_origin",
          "type": "string"
        },
        {
          "internalType": "string",
          "name": "_destination",
          "type": "string"
        },
        {
          "internalType": "uint8",
          "name": "_nSlot",
          "type": "uint8"
        },
        {
          "internalType": "uint8",
          "name": "price",
          "type": "uint8"
        },
        {
          "internalType": "uint256",
          "name": "startTime",
          "type": "uint256"
        },
        {
          "internalType": "address payable",
          "name": "_conflictOwner",
          "type": "address"
        },
        {
          "internalType": "enum CarpoolingFactory.ModeConflict",
          "name": "_modeConflict",
          "type": "uint8"
        }
      ],
      "name": "createCarpooling",
      "outputs": [],
      "payable": false,
      "stateMutability": "nonpayable",
      "type": "function"
    }
  ],
  "bytecode": "0x608060405234801561001057600080fd5b50336000806101000a81548173ffffffffffffffffffffffffffffffffffffffff021916908373ffffffffffffffffffffffffffffffffffffffff160217905550610340806100606000396000f3fe608060405234801561001057600080fd5b50600436106100415760003560e01c80632a1349ac146100465780639d4a727e146100b4578063f851a44014610257575b600080fd5b6100726004803603602081101561005c57600080fd5b81019080803590602001909291905050506102a1565b604051808273ffffffffffffffffffffffffffffffffffffffff1673ffffffffffffffffffffffffffffffffffffffff16815260200191505060405180910390f35b610255600480360360e08110156100ca57600080fd5b81019080803590602001906401000000008111156100e757600080fd5b8201836020820111156100f957600080fd5b8035906020019184600183028401116401000000008311171561011b57600080fd5b91908080601f016020809104026020016040519081016040528093929190818152602001838380828437600081840152601f19601f8201169050808301925050505050505091929192908035906020019064010000000081111561017e57600080fd5b82018360208201111561019057600080fd5b803590602001918460018302840111640100000000831117156101b257600080fd5b91908080601f016020809104026020016040519081016040528093929190818152602001838380828437600081840152601f19601f820116905080830192505050505050509192919290803560ff169060200190929190803560ff16906020019092919080359060200190929190803573ffffffffffffffffffffffffffffffffffffffff169060200190929190803560ff1690602001909291905050506102dd565b005b61025f6102e6565b604051808273ffffffffffffffffffffffffffffffffffffffff1673ffffffffffffffffffffffffffffffffffffffff16815260200191505060405180910390f35b600181815481106102ae57fe5b906000526020600020016000915054906101000a900473ffffffffffffffffffffffffffffffffffffffff1681565b50505050505050565b6000809054906101000a900473ffffffffffffffffffffffffffffffffffffffff168156fea265627a7a723158208c0a7e5aed4955ff84fb0439ff146831906e1583435dbf7430e953b7e9884a8564736f6c63430005100032",
  "source": "// SPDX-License-Identifier: MIT\npragma solidity = 0.5.16;\n\nimport \"./Carpooling.sol\";\n\ncontract CarpoolingFactory {\n    address public admin;\n    Carpooling[] public carpoolings;\n    enum ModeConflict{normal, tyranic, generous}\n\n    constructor() public {\n        admin = msg.sender;\n    }\n\n    function createCarpooling(string memory _origin, string memory _destination, uint8 _nSlot, uint8 price, uint256 startTime,address payable _conflictOwner, ModeConflict _modeConflict) public {\n        // Carpooling newCarpooling = new Carpooling(_origin, _destination, _nSlot, price, startTime, _conflictOwner, _modeConflict);\n    }\n}",
  "sourcePath": "/Users/olivier/Documents/code/olivier7delf/carpooling-v1 copy/contracts/CarpoolingFactory.sol",
  "compiler": {
    "name": "solc",
    "version": "0.5.16+commit.9c3226ce.Emscripten.clang"
  },
  "schemaVersion": "3.4.3",
  "updatedAt": "2021-11-19T12:31:33.876Z",
  "devdoc": {
    "methods": {}
  },
  "userdoc": {
    "methods": {}
  }
}